:020000040800F2
:1000000030570020610200086F640008654700084F
:10001000616400088F0A00082584000800000000C1
:10002000000000000000000000000000A101000826
:10003000AB0B000800000000FD010008E974000897
:100040007B0200087B0200087B0200087B0200089C
:100050007B0200087B0200087B0200087B0200088C
:100060007B0200087B0200087B0200087B0200087C
:100070007B0200087B0200087B0200087B0200086C
:100080007B0200087B020008010900087B020008CF
:100090007B0200087B0200087B0200087B0200084C
:1000A0007B0200087B0200087B020008E57500085F
:1000B000F5750008057600081576000879470008F0
:1000C000694700087B0200087B020008956D000864
:1000D000A56D00083581000845810008558100089C
:1000E0007B0200087B0200087B0200087B020008FC
:1000F0007B0200087B0200087B0200087B020008EC
:100100007B0200087B020008257600087B020008BD
:10011000497A0008597A00083576000845760008C3
:100120007B0200087B0200087B0200087B020008BB
:100130007B0200087B0200087B0200087B020008AB
:100140007B0200087B0200087B0200087B0200089B
:100150007B0200087B0200087B0200086581000822
:100160007B0200087B0200087B0200087B0200087B
:100170007B0200087B0200087B0200087B0200086B
:100180007B0200087B020008DFF810D000F0A6FB1D
:1001900000480047898F0008AFF3008030570020E7
:1001A0002C4B19680868B0E8F04F80F30988BFF35A
:1001B0006F8F4FF0000080F311887047000000003F
:1001C00008480068006880F308884FF0000080F35A
:1001D000148862B661B6BFF34F8FBFF36F8F00DF35
:1001E00000BF00BF08ED00E0DFF80C00016841F43B
:1001F00070010160704700BF88ED00E0EFF30980F7
:10020000BFF36F8F134B1A681EF0100F08BF20ED5D
:10021000108A20E9F04F106009B44FF0500080F3CD
:100220001188BFF34F8FBFF36F8F09F0A5FF4FF019
:10023000000080F3118809BC19680868B0E8F04F25
:100240001EF0100F08BFB0EC108A80F30988BFF3CE
:100250006F8F70471C000020EFF30580704700008F
:100260000648804706480047FEE7FEE7FEE7FEE750
:10027000FEE7FEE7FEE7FEE7FEE7FEE7D1750008D2
:10028000890100082DE9F05F0546002092469B4653
:1002900088460646814640241BE02846414647469C
:1002A000224600F04CFA53465A46C01A914110D3E8
:1002B00011461846224600F033FA2D1A67EB010862
:1002C0004F4622460120002100F02AFA17EB0009D0
:1002D0004E41201EA4F10104DFDC484631462A4687
:1002E0004346BDE8F09F10B540EA01040346A40769
:1002F00003D009E010C9121F10C3042AFAD203E088
:1003000011F8014B03F8014B521EF9D210BDD2B2C5
:1003100001E000F8012B491EFBD270470022F6E7EE
:1003200010B513460A4604461946FFF7F0FF20466B
:1003300010BD2DE9FE4F804681EA0300C00F0C4638
:10034000009021F0004123F00045B8EB0200A941E4
:1003500005D24046214690461C460B46024623F0F5
:100360000040104347D0270DC7F30A00C3F30A51DA
:100370000290401A019040286BDAC3F3130040F456
:10038000801B0098924620B10023D2EB030A63EB56
:100390000B0B01985946C0F14002504600F0C0F9DD
:1003A00006460D4650465946019A00F0D8F910EB22
:1003B00008006141002487EA115284EAE7731A4376
:1003C00040D0009A62B3019A012A4FEA075215DC25
:1003D000001B61EB02014FF0004202EA0752CDE937
:1003E0000042001C41F5801132462B4600F00FFA06
:1003F00003B0BDE8F08F40462146F9E7001B61EBF2
:100400000201001C41F5801300185B412018A2F581
:10041000001747EB030140EAD570B6196D4111E0B2
:100420006D084FEA360645EAC0754FEA0752001BD1
:1004300061EB0201001C41F5801149084FEA3000D0
:100440000019514132462B4603B0BDE8F04F00F091
:10045000CFB90098012240000023D0EB020263EBE9
:10046000E073009821464FEAE074B8EB000061EBBE
:100470000401E9E783F000435BE781F0004158E7BE
:100480002DE9FE4F81EA030404F0004421F000410D
:1004900000944FF0000B23F0004350EA01045ED0BB
:1004A00052EA03045BD0C3F30A54C1F30A552C4447
:1004B000A4F2F3340194A0FB0254C1F3130141F4FC
:1004C0008011C3F3130343F4801301FB024400FBC8
:1004D000034E840A970A44EA815447EA8357A4FBEF
:1004E000076802958D0A05FB07854FEA932C04FBEC
:1004F0000C542705029D4FEA065847EA1637B5EB1C
:1005000008056EEB070C870E920E47EA811742EA48
:100510008312A7FB0201B6EB0B0164EB00042B0D69
:1005200043EA0C335E1844EB1C50DA465146E7FBB5
:100530000201C5F313044FEA0B3343EA14534FEAA5
:100540000432019C43EA0603A4F10C040294009CCB
:10055000CDE900B400F05BF903B0BDE8F08F0020F6
:100560000146F9E72DE9F04D81EA030404F0004B60
:1005700021F0004514464FF0000A23F0004150EAF4
:10058000050220D054EA01021DD0C5F30A570246E5
:10059000C5F31303C1F31300C1F30A5640F48015E9
:1005A00043F48013A7EB0608101BD64608F2FD386B
:1005B00073EB050002D308F1010801E092185B41DA
:1005C000B8F1000F03DA00200146BDE8F08D0020ED
:1005D0004FF48011064684460EE0171B73EB0507A7
:1005E00005D3121B63EB050306434CEA010C4908D3
:1005F0004FEA300092185B4150EA0107EDD152EA10
:10060000030012D082EA040083EA0501084305D002
:10061000101BAB4106D20122002306E000224FF05E
:10062000004302E06FF0010253101AEB06004CEB9E
:10063000085110EB0A0041EB0B01BDE8F04D00F052
:10064000D7B80EB5C10F80EAE0700844CA07002190
:1006500040F233438DE80E000A460B4600F0D7F80F
:1006600003B000BD00F0004230F000400AD0C10DE0
:1006700001F56071C0F3160042EA0151C20840075B
:1006800011437047002001467047000030B5041E3A
:1006900071F1000404DB4FF00044404264EB0101BF
:1006A000141E73F1000405DB1C464FF00043524258
:1006B00063EB0403994208BF904230BD01F0004350
:1006C00030B421F0004150EA010206D00A0DA2F533
:1006D0006072C1F31301002A02DC30BC00207047B5
:1006E000440F44EAC104C100E01830BC00EBC25022
:1006F00000F047B830B50B46014600202022012407
:1007000009E021FA02F59D4205D303FA02F5491BDF
:1007100004FA02F52844151EA2F10102F1DC30BDF5
:10072000202A04DB203A00FA02F1002070479140B1
:10073000C2F1200320FA03F3194390407047202AA6
:1007400004DB203A21FA02F00021704721FA02F37B
:10075000D040C2F120029140084319467047202A38
:1007600006DBCB17203A41FA02F043EAE07306E0D9
:1007700041FA02F3D040C2F12002914008431946E9
:1007800070470029A8BF7047401C490008BF20F0EF
:100790000100704710B4B0FA80FC00FA0CF050EA87
:1007A000010404BF10BC704749B1CCF1200421FA08
:1007B00004F411FA0CF118BF012121430843A3EB03
:1007C0000C01CB1D4FEA00614FEA102042BF002010
:1007D00010BC704700EBC35010440029A4BF10BCEC
:1007E0007047401C490008BF20F0010010BC704752
:1007F00010B5141E73F1000408DA401C41F1000129
:1008000092185B411A4301D120F0010010BD2DE97F
:10081000F04D92469B4611B1B1FA81F202E0B0FA76
:1008200080F220329046FFF77BFF04460F4640EAF5
:100830000A0041EA0B0153465A46084313D01146B9
:1008400053EA010019D0C8F140025046FFF777FF84
:1008500005460E46504659464246FFF761FF08439B
:1008600005D0012004E020463946BDE8F08D002087
:10087000054346EAE0762C4337430A986305E40AC9
:10088000A0EB08000022FD0A44EA47540A3002D5D2
:1008900000200146E9E7010510196941DDE9084535
:1008A00000196941BDE8F04DA2E7C1F30A52C1F356
:1008B000130140F2FF3341F480119A4202DA002022
:1008C0000146704740F233439A42A2F2334202DCBF
:1008D0005242FFF734BFFFF723BF0000064C074D1D
:1008E00006E0E06840F0010394E807009847103400
:1008F000AC42F6D3FFF74CFCDCB90008FCB90008A9
:1009000010B5054800F056FA044800F053FA0448C0
:1009100000F050FA10BD0000D80800202009002087
:100920006809002055494A6822F440324A604A6802
:1009300043681A434A600268526822F4807203686E
:100940005A6002685368026943EA022203685A60E7
:100950000268526822F0407203685A600268526866
:1009600083681A4303685A600268926822F400623E
:1009700003689A6002689268C3681A4303689A60C1
:100980003F4B826A9A4218D00268926822F07062E5
:1009900003689A6002689268836A1A4303689A60DF
:1009A0000268926822F0405203689A600268926876
:1009B000C36A1A4303689A600BE00268926822F0E7
:1009C000706203689A600268926822F0405203687D
:1009D0009A600268926822F0020203689A600268D4
:1009E0009368027E43EA420203689A602022125C06
:1009F000A2B10268526842F4006203685A60026859
:100A0000526822F4604203685A6002685368426A7E
:100A1000521E43EA423203685A6005E00268526897
:100A200022F4006203685A600268D26A22F47002FB
:100A30000368DA620268D36A828B521E43EA02526A
:100A40000368DA620268926822F4007203689A60AE
:100A50000268936890F8302043EA422203689A6063
:100A60000268926822F4806203689A600268936860
:100A7000426943EA822203689A607047002301407A
:100A80000100000F00BFC82008F00FFBFBE700BF0C
:100A9000FEE700BF4FF47A7008F007FBFAE70000AA
:100AA0000146087810381823B0FBF3F20848805C40
:100AB000C865032A05D908686FF30900001D886519
:100AC00003E008686FF309008865886D70470000CF
:100AD00088B00008014600208A6A8B69CBB932B120
:100AE000012A0DD0022A03D0032A10D10EE000BF44
:100AF000CB6A03F08073B3F1807F00D1012007E05F
:100B0000CB6AB3F1C07F00D1012001E000E000BF5B
:100B100034E08B69B3F5005F1AD132B1012A07D0F6
:100B2000022A03D0032A11D10AE000BF01200EE0FF
:100B3000CB6A03F08073B3F1807F00D1012006E01F
:100B4000CB6AB3F1C07F00D1012000E000BF15E007
:100B500032B1012A05D0022A04D0032A0CD103E0C5
:100B600000BF00BF012008E0CB6A03F08073B3F13F
:100B7000807F00D1012000E000BF00BF704730B58A
:100B80000468246824F4802405682C600468636089
:100B90008468402C04D10468A2600468E16003E02A
:100BA0000468A1600468E26030BD704710B50120A0
:100BB00008F0C8F9832000F013F8002406E0FF20B5
:100BC00000F00EF805490855601CC4B2062CF6DB8F
:100BD000002008F0B7F908F0A7F910BDFA000020CE
:100BE00010B504462146022006F06EF910BD000043
:100BF00010B506F029FA06F02DFC064880ED000A33
:100C000006F0F0F906F0B8FB034880ED000A90ED1D
:100C1000000A10BD0C0100201401002072B600BFB4
:100C2000FEE7704738B502460020009000BF92F8FA
:100C30003C00012801D1022038BD012082F83C008F
:100C400000BF0868092816D91068C0680C780A3CEB
:100C500004EB44050724AC40A0431468E0600C7822
:100C60000A3C04EB44048868A0401468E46820430C
:100C70001468E06013E0106800690C7804EB440528
:100C80000724AC40A043146820610C7804EB4404B2
:100C90008868A0401468246920431468206148686B
:100CA000072817D21068406B0C79641E04EB84058A
:100CB0001F24AC40A04314686063088880B20C799C
:100CC000641E04EB8404A0401468646B2043146821
:100CD000606331E048680D2817D21068006B0C790A
:100CE000E41F04EB84051F24AC40A0431468206378
:100CF000088880B20C79E41F04EB8404A0401468D7
:100D0000246B20431468206316E01068C06A0C79D5
:100D10000D3C04EB84051F24AC40A0431468E06242
:100D2000088880B20C790D3C04EB8404A040146860
:100D3000E46A20431468E062194B1A4C1068A04220
:100D400006D10868122803D1586840F48000586022
:100D5000144C1068A0421CD10868102802D0086802
:100D6000112816D1586840F400005860086810280F
:100D70000FD10D4800680D4CB0FBF4F000EB800083
:100D80004000009002E00098401E0090009800286B
:100D9000F9D100BF002082F83C0000BF00BF4BE744
:100DA00000230140002001401800002040420F00B5
:100DB0007047704770B5044600250026206800681B
:100DC000C0F3400520684068C0F3401695B38EB369
:100DD000206C00F0100018B9206C40F40070206402
:100DE0002068806800F04050E8B9207ED8B92068BB
:100DF000C06A00F4700020B12068806800F4806050
:100E000088B92068406820F0200021684860206C84
:100E100020F480702064206C00F4805018B9206C9D
:100E200040F0010020642046FFF7C2FF6FF012007F
:100E30002168086020680068C0F380052068406869
:100E4000C0F3C016E5B3DEB3206C00F0100018B993
:100E5000206C40F4005020642068806800F440104A
:100E600038BB2068806B00F4401020B12068806897
:100E700000F48060E8B92068406800F48060C0B980
:100E80002068806800F0405098B9207E88B92068BA
:100E9000406820F0800021684860206C20F4805079
:100EA0002064206C00F4807018B9206C40F00100C0
:100EB00020642046FFF7B5FE6FF00C002168086043
:100EC0002068006800F0010520684068C0F38016C3
:100ED00085B17EB12068006800F0010050B1206C3F
:100EE00040F480302064204600F052F86FF001009A
:100EF0002168086020680068C0F3401520684068D9
:100F0000C0F380667DB176B1606C40F00200606431
:100F10006FF02000216808602046FFF74AFF6FF05D
:100F200020002168086070BD70B5044600250CB92A
:100F3000012070BD1549A06A884200D000BF206C16
:100F400030B9204600F026F80020606484F83C00A8
:100F5000206C00F0100088B9206C20F4885040F01C
:100F6000020020642046FFF7DDFC00206064206C56
:100F700020F0020040F00100206400E0012500BFE5
:100F8000002084F83C0000BF2846D2E70100000F93
:100F90007047000010B586B00446142101A8FFF781
:100FA000BDF96F49206888424DD100BF00200090F4
:100FB0006C48006840F480706A4908600846006820
:100FC00000F48070009000BF00BF00BF00200090C0
:100FD00064481438006840F004006249143908601D
:100FE0000846006800F00400009000BF00BF00BF8A
:100FF000002000900846006840F0020008600846A3
:10100000006800F00200009000BF00BF0E200190B9
:10101000032002900020039001A9534800F0EEF94C
:1010200001200190032002900020039001A94F4865
:1010300000F0E4F900220521122000F0B1FE122098
:1010400000F09EFE89E04A49206888424DD100BFE9
:10105000002000904348006840F400704149086057
:101060000846006800F40070009000BF00BF00BF99
:10107000002000903B481438006840F004003949D3
:10108000143908600846006800F00400009000BFB2
:1010900000BF00BF002000900846006840F002003A
:1010A00008600846006800F00200009000BF00BF22
:1010B0000E200190032002900020039001A92A48ED
:1010C00000F09CF901200190032002900020039081
:1010D00001A9264800F092F900220521122000F013
:1010E0005FFE122000F04CFE37E022492068884263
:1010F00033D100BF002000901A48006840F480609F
:10110000184908600846006800F48060009000BF3D
:1011100000BF00BF0020009012481438006840F063
:1011200004001049143908600846006800F0040003
:10113000009000BF00BF0E2001900320029000200D
:10114000039001A9084800F059F900220521122056
:1011500000F026FE122000F013FE06B010BD0000C5
:1011600000200140443802400008024000040240D0
:10117000002101400022014070B50446A56D00F039
:101180003BFA064694F83500022808D080206065B6
:1011900000BF002084F8340000BF012070BD20682B
:1011A000006820F01600216808602068406920F07F
:1011B000800021684861206C08B9A06C28B12068C3
:1011C000006820F00800216808602068006820F0AE
:1011D00001002168086010E000F00EFA801B05286D
:1011E0000BD920206065032084F8350000BF002063
:1011F00084F8340000BF0320D0E72068006800F0C6
:1012000001000028E8D194F85C103F208840A860D5
:10121000012084F8350000BF002084F8340000BFAE
:1012200000BFBBE7014691F83500022803D08020BB
:10123000486501207047052081F83500086800687E
:1012400020F001000A6810600020F3E7014691F8E1
:10125000350070472DE9F0410446002500F0CCF937
:10126000074614B90120BDE8F081606A00B100BFF3
:10127000022084F8350000BF002084F8340000BF4D
:101280002068006820F00100216808600AE000F092
:10129000B3F9C01B052805D920206065032084F818
:1012A0003500E0E72068006800F001000028EED17A
:1012B0002068056821480540D4E901010843E16838
:1012C00008432169084361690843A1690843E1694A
:1012D0000843216A08430543606A042803D1D4E91E
:1012E0000B0108430543206805602068456925F027
:1012F0000705606A0543606A04280DD1A06A0543AA
:10130000E06A48B12046FFF7E5FB28B14020606560
:10131000012084F83500A6E7206845612046FFF7E4
:10132000BFFB064694F85C103F208840B060002068
:101330006065012084F83500002094E73F8010F0BC
:101340002DE9F04704460D4616461F464FF00008AB
:10135000D4F8589000BF94F83400012802D102203C
:10136000BDE8F087012084F8340000BF94F8350010
:10137000012825D1022084F83500002060653B4615
:10138000324629462046FFF7FAFB94F85C103F20CE
:101390008840C9F808002068006840F016002168FD
:1013A0000860206C28B12068006840F008002168BF
:1013B00008602068006840F001002168086006E0CD
:1013C00000BF002084F8340000BF4FF00208404600
:1013D000C6E7000070B5044600F00EF90646254643
:1013E000681C10B104480078054400BF00F004F9FF
:1013F000801BA842FAD370BD14000020F8B5024645
:101400000B460025002400200021D5E0012606FA25
:1014100001F51E6806EA0504AC4274D11E7906F097
:101420000306012E04D01E7906F00306022E13D106
:1014300090684F000326BE40B0434F00DE68BE40B8
:1014400030439060506801268E40B0431E79C6F349
:1014500000168E40304350601E7906F00306032EBE
:1014600009D0D0684F000326BE40B0434F009E68AD
:10147000BE403043D0601E7906F00306022E13D121
:10148000CF0802F1200656F827004E07F70E0F2668
:10149000BE40B0434F07FF0E1E69BE403043CF0829
:1014A00002F1200646F8270010684F000326BE40D0
:1014B000B0431E7906F003064F00BE403043106073
:1014C0005E6806F44036002E75D000BF00260096F8
:1014D0003B4E366846F48046394F3E603E4636689D
:1014E00006F48046009600BF00BF364E8F0856F8BF
:1014F00027008E07370F0F26BE40B043324EB24250
:1015000002D1002624E056E0304EB24201D101263D
:101510001EE02F4EB24201D1022619E02D4EB242FA
:1015200001D1032614E02C4EB24201D104260FE073
:101530002A4EB24201D105260AE0294EB24201D11B
:10154000062605E0274EB24201D1072600E0082614
:101550008F073F0FBE4030431A4E8F0846F82700D2
:10156000214E3068A0435E6806F4803606B1204301
:101570001D4E3060361D3068A0435E6806F40036AC
:1015800006B12043184E361D3060361D3068A0432A
:101590005E6806F4801606B12043134E08363060AC
:1015A000361D3068A0435E6806F4001606B120437D
:1015B0000D4E0C363060491C1029FFF427AFF8BDE2
:1015C0004438024008380140000002400004024054
:1015D00000080240000C02400010024000140240CB
:1015E00000180240001C0240003C01400AB1816129
:1015F00001E00B04836170470148006870470000F8
:101600000C00002030B58BB0044614B901200BB09B
:1016100030BD256894F8F90228B9002084F8F80252
:10162000204600F029F8032084F8F902E86B00F462
:10163000807008B900212161206806F007FE282289
:1016400004F110016846FEF74EFE94E80F0006F024
:1016500091FD0121206806F0B1FE282204F110015D
:101660006846FEF740FE94E80F0006F02FFE0120CA
:1016700084F8F9020020CAE710B586B004461421A8
:1016800001A8FEF74BFE2068B0F1A04F3AD100BF91
:10169000002000901C48006840F001001A490860D2
:1016A0000846006800F00100009000BF00BF4FF442
:1016B000C05001900220029000200390032004906B
:1016C0000A20059001A91148FFF798FE00BF0E48B7
:1016D000001D006840F080000B49091D086000BF34
:1016E0000020009008481430006840F4804006490B
:1016F000143108600846006800F48040009000BF84
:1017000000BF00BF06B010BD3038024000000240EC
:10171000704770472DE9F84F0446206847692068F4
:10172000D0F80480002594F83E90C7F3002040B123
:10173000C8F3002028B145F001056FF480702168DE
:101740004861C7F3402040B1C8F3002028B145F0FC
:1017500002056FF4007021684861C7F3802070B300
:10176000C8F3002058B3CA46B4F82AB094F83D60D4
:10177000206B0090BAF1200F0FD1BBF1000F0CD1FC
:10178000212E06D0292E04D0282E06D100982128FB
:1017900003D1204603F0A8FD11E06FF480602168BA
:1017A000486145F00405B9F1100F02D0B9F1400FBE
:1017B00005D12068006840F4007021680860C7F314
:1017C000C02040B1C8F3002028B145F008056FF4EF
:1017D0000060216848612DB1206C284320642046B8
:1017E00003F05CF8BDE8F88F2DE9F04705464FF0AF
:1017F000000928684668D5F82CA095F83E7095F841
:101800003D80102F01D0402F75D12868D0F8189056
:101810002868446904F0010060B9BAF52A0F02D0C3
:10182000BAF12A4F01D1012000E00020012801D1A6
:10183000BDE8F08704F0010048B1C6F3402030B1A4
:10184000284602F0A1FF284603F007FCB7E0C4F3E6
:10185000C00030B1C6F3402018B1284603F0B4FAF6
:10186000ADE0C4F3400030B1C6F3402018B12846C3
:1018700003F0BFFAA3E0C9F3800040B328684068D2
:1018800000F40060B0F5006FE0D0C4F3C01048B1C0
:10189000C6F3802030B1C4F3800018B9284603F0A5
:1018A00027FA8CE0C4F380000028CFD0C6F3402094
:1018B0000028CBD0B8F1210F03D1284603F0C8F996
:1018C0007DE0402F7BD1284603F016FC77E02868A6
:1018D000406800F40060B0F5006F70D0C4F3801071
:1018E00050B1C6F3802038B1C4F3800020B9284637
:1018F00003F03DF963E00BE0C4F3800000285ED004
:10190000C6F3402000285AD0284603F09DF856E040
:10191000286C10B12868446904E02868D0F8189051
:1019200028684469C4F3400060B1C6F3402048B160
:10193000286C10B12868D0F818904946284603F062
:101940009AFC3CE0C4F3001030B1C6F3402018B15B
:10195000284603F019FD32E0B8F1210F02D0B8F1AA
:10196000290F16D1C4F3C01048B1C6F3802030B19E
:10197000C4F3800018B9284603F05AFC1FE0C4F3F2
:101980008000E0B1C6F34020C8B1284603F043FC14
:1019900015E0C4F3801048B1C6F3802030B1C4F321
:1019A000800018B9284603F013FC08E0C4F3800057
:1019B00028B1C6F3402010B1284603F0FCFB00BF5D
:1019C00036E7704770B504460CB9012070BD94F835
:1019D0003D0028B9002084F83C00204600F0E0F8E3
:1019E000242084F83D002068006820F00100216870
:1019F00008602068006840F40040216808602068A2
:101A0000006820F400402168086000F005FB0546EE
:101A10005C496068884206D85B48854201D2012053
:101A200007E0002005E05948854201D2012000E08E
:101A30000020012800D1C9E75548B5FBF0F6206821
:101A4000406820F03F003043216848604D4960689D
:101A5000884201D8701C07E04FF4967070434FF431
:101A60007A71B0FBF1F0401C2168096A21F03F0156
:101A700008432168086243496068884214D8681E98
:101A800061684900B0FBF1F0401CC0F30B00042872
:101A900001D204203DE0681E61684900B0FBF1F00E
:101AA000401CC0F30B0034E0A06838B9681E6168C0
:101AB00001EB4101B0FBF1F0401C0AE0681E6168D7
:101AC00001EBC10202EB0111B0FBF1F0401C40F44C
:101AD0008040C0F30B0008B901201AE0A06848B9A3
:101AE000681E616801EB4101B0FBF1F0401CC0F3DE
:101AF0000B000CE0681E616801EBC10202EB0111F2
:101B0000B0FBF1F0401CC0F30B0040F4804040F407
:101B100000402168C9694CF6FF729143084321686F
:101B2000C861D4E9070108432168096821F0C001B0
:101B3000084321680860D4E90310084321688968D4
:101B400048F2FF329143084321688860D4E90501D7
:101B500008432168C96821F0FF0108432168C86073
:101B60002068006840F001002168086000202064BF
:101B7000202084F83D000020206384F83E0000BF50
:101B800024E70000A086010080841E0000093D00BB
:101B900040420F0070477047704770477047000021
:101BA00010B586B00446142101A8FEF7B7FB2349FF
:101BB000206888423FD100BF002000902048006884
:101BC00040F002001E4908600846006800F002006C
:101BD000009000BF00BFC0200190122002900020A2
:101BE0000390032004900420059001A91548FFF7F5
:101BF00005FC00BF0020009011481030006840F440
:101C000000100F49103108600846006800F4001009
:101C1000009000BF00BF002205211F2000F0C0F887
:101C20001F2000F0ADF800220521202000F0B8F8B8
:101C3000202000F0A5F806B010BD000000540040C0
:101C40003038024000040240704770470348006883
:101C50000349097808440149086070470C000020D6
:101C60001400002010B50D48006840F400700B49C6
:101C700008600846006840F4806008600846006814
:101C800040F480700860032000F0C8F80F2000F0D6
:101C900007F800F04BF8002010BD0000003C0240A7
:101CA00070B588B004460025002600222146372062
:101CB00000F076F8372000F063F800BF00200190B4
:101CC0001648006840F02000144908600846006883
:101CD00000F02000019000BF00BF02A903A800F09F
:101CE00073F900F099F945000D48B5FBF0F0461E78
:101CF0000C480D49086040F2E7310B48C16046606E
:101D000000210161816001F0C9F920B9064801F0A4
:101D10004DFA08B070BD0120FBE7000040380240DA
:101D200040420F00001400403C08002008B500BFEE
:101D3000002000901148006840F480400F4908607E
:101D40000846006800F48040009000BF00BF00BF5C
:101D500000200090081F006840F08050091F0860B4
:101D60000846006800F08050009000BF00BF0022CD
:101D70000F21901E00F014F808BD00004438024006
:101D800001460846002809DB00F01F0301229A40A3
:101D900043099B0003F1E023C3F8002100BF704713
:101DA0002DE9F05F80460D461646002706F046FCFA
:101DB000074639462A46334601F00700C0F1070AB4
:101DC000BAF1040F02D94FF0040A01E0C0F1070A8A
:101DD000D14600F1040ABAF1070F02D24FF0000A0F
:101DE00001E0A0F1030AD4464FF0010A0AFA09FA09
:101DF000AAF1010A0AEA020A0AFA0CFA4FF0010BE8
:101E00000BFA0CFBABF1010B0BEA030B4AEA0B04D8
:101E10002146404606F01AFCBDE8F09F00BF00F0E6
:101E20000702064B19684FF6FF031940044B0B439A
:101E300043EA0221014B196000BF70470CED00E03E
:101E40000000FA0570B504460D460CB9012070BDBE
:101E50005848006800F00700A84209D255490D70A3
:101E60000846006800F00700A84201D00120EEE714
:101E7000207800F0020002281DD1207800F0040034
:101E8000042805D14C48006840F4E0504A490860F5
:101E9000207800F00800082805D14748006840F481
:101EA0006040454908604448006820F0F000A1689F
:101EB000084341490860207800F00100A8B3606839
:101EC000012807D13C4808380068C0F34040B8B941
:101ED0000120BCE76068022802D06068032807D1AF
:101EE000354808380068C0F3406048B90120AEE7C3
:101EF000314808380068C0F3400008B90120A6E75F
:101F00002D48006820F00300616808432A490860F2
:101F1000FFF772FB064609E0FFF76EFB801B41F2FC
:101F20008831884202D9032091E707E022480068FF
:101F300000F00C006168B0EB810FEDD11D48006826
:101F400000F00700A84209D91A490D700846006838
:101F500000F00700A84201D0012078E7207800F0C7
:101F60000400042807D11448006820F4E050E16818
:101F7000084311490860207800F00800082808D1BB
:101F80000D48006820F46040216940EAC1000A4918
:101F9000086000F061F808490968C1F30311074AB5
:101FA000515CC8400649086006480068FFF778FEA3
:101FB00000204CE7003C02400838024090B0000886
:101FC00018000020100000200F2202600D4A126845
:101FD00002F0030242600B4A126802F0F0028260D3
:101FE000084A126802F4E052C260064A126802F41B
:101FF0006042D2080261044A126802F007020A60D5
:102000007047000008380240003C02400148006868
:10201000704700001800002000B5FFF7F7FF0449E3
:102020000968C1F38221034A515CC84000BD000029
:1020300008380240A0B0000800B5FFF7E7FF0449E8
:102040000968C1F34231034A515CC84000BD000039
:1020500008380240A0B000082DE9F0470024002510
:102060000026A1462548006800F00C0020B1042895
:1020700005D008283AD105E0DFF8849039E0DFF890
:10208000849036E01D48001F006800F03F041B48A4
:10209000001F006800F4800078B11A481749091F32
:1020A0000968C1F38811A0FB017001462246002394
:1020B0003846FEF7E7F805460EE011480F49091FBC
:1020C0000968C1F38811A0FB017001462246002374
:1020D0003846FEF7D7F805460848001F0068C0F3E9
:1020E0000140401C4600B5FBF6F902E0DFF8109015
:1020F00000BF00BF4846BDE8F08700000838024036
:102100000024F40000127A00F8B504460CB901204E
:10211000F8BD207800F00100002874D0F94800686C
:1021200000F00C0004280DD0F648006800F00C0008
:10213000082813D1F348001F006800F48000B0F5B0
:10214000800F0BD1EF4808380068C0F340400028EA
:1021500059D06068002856D10120D9E700BF6068D7
:10216000B0F5803F08D1E7480838006840F4803077
:10217000E449083908601EE06068B0F5A02F0DD171
:10218000E0480838006840F48020DE4908390860DB
:102190000846006840F4803008600CE0D9480838F0
:1021A000006820F48030D749083908600846006884
:1021B00020F48020086000BF606890B1FFF71CFA2F
:1021C000054606E0FFF718FA401B642801D90320F2
:1021D0009EE7CC4808380068C0F340400028F1D0A2
:1021E00011E0FFF709FA054606E0FFF705FA401B84
:1021F000642801D903208BE7C24808380068C0F37F
:1022000040400028F1D1207800F0020002285FD180
:10221000BC48006800F00C0058B1BA48006800F0F3
:102220000C0008281CD1B748001F006800F480008B
:10223000B0B9B44808380068C0F3400020B1E06885
:10224000012801D0012063E7AE480838006820F07B
:10225000F800216940EAC100AA490839086037E05E
:10226000E06800B30120A8490860FFF7C5F90546FA
:1022700006E0FFF7C1F9401B022801D9032047E718
:10228000A04808380068C0F340000028F1D09D48FD
:102290000838006820F0F800216940EAC100994937
:1022A0000839086014E0002097490860FFF7A4F996
:1022B000054606E0FFF7A0F9401B022801D90320DC
:1022C00026E7904808380068C0F340000028F1D1A4
:1022D000207800F0080008282CD16069A8B10120FE
:1022E0008A490860FFF788F9054606E0FFF784F998
:1022F000401B022801D903200AE782486C3000689D
:10230000C0F340000028F1D014E000207F490860AD
:10231000FFF772F9054606E0FFF76EF9401B022849
:1023200001D90320F4E677486C300068C0F3400020
:102330000028F1D1207800F00400042870D1002793
:1023400070483830006800F0805090B900BF00201D
:1023500000906C483830006840F08050694938314E
:1023600008600846006800F08050009000BF00BF81
:1023700001276748006800F48070B0B964480068BD
:1023800040F4807062490860FFF736F9054606E0C0
:10239000FFF732F9401B022801D90320B8E65C4858
:1023A000006800F480700028F2D000BFA068012807
:1023B00008D154486830006840F001005149683144
:1023C00008601DE0A06805280DD14E4868300068FF
:1023D00040F004004B49683108600846006840F04E
:1023E000010008600CE047486830006820F00100F8
:1023F0004449683108600846006820F0040008601D
:1024000000BFA068A8B1FFF7F7F8054609E0FFF79D
:10241000F3F8401B41F28831884202D9032077E665
:1024200026E0384868300068C0F340000028EED04D
:1024300013E0FFF7E1F8054608E0FFF7DDF8401B81
:1024400041F28831884201D9032061E62D48683085
:102450000068C0F340000028EFD1012F07D12948C0
:102460003830006820F0805026493831086000BFBD
:10247000A069002845D02348006800F00C00082817
:102480005DD0A069022845D100201F490866FFF7EA
:10249000B3F8054606E0FFF7AFF8401B022801D964
:1024A000032035E6174808380068C0F3406000286C
:1024B000F1D1D4E907010843616A40EA81110122A0
:1024C000A06AC2EB500041EA00412C20005D41EAC5
:1024D00000600C49091F086001200B490866FFF7DE
:1024E0008BF8054606E0FFF787F8401B022801D964
:1024F00003200DE6034808380068C0F34060002858
:10250000F1D049E00838024000004742800E4742BF
:1025100000700040002021490866FFF76DF805466D
:1025200006E0FFF769F8401B022801D90320EFE518
:102530001B480068C0F340600028F2D12CE0A0697D
:10254000012800D1E4E51648001D0668A0690128AD
:1025500020D006F48001E06981421BD106F03F01E2
:10256000206A814216D147F6C0703040616AB0EBF4
:10257000811F0FD106F440310122A06AC2EB500046
:10258000B1EB004F06D106F070612C20005DB1EB7D
:10259000006F01D00120BBE50020B9E500004742F3
:1025A000003802407047014691F851007047000022
:1025B000F8B504462068466820688568C5F3801031
:1025C00048B905F0010030B1C6F3801018B12046BB
:1025D000216C8847F8BDC5F3400030B1C6F3C01088
:1025E00018B12046616C8847F4E7C5F3401030B954
:1025F000C5F3801018B9C5F3002000287CD0C6F3BD
:10260000401000287DD0C5F38010F0B194F851003F
:1026100003280ED0606D40F00400606500BF00200C
:1026200000902068C068009020688068009000BF1B
:102630000BE000BF002000902068C0680090206878
:102640008068009000BF00BFC4E7C5F3401088B1A8
:10265000606D40F00100606500BF002000902068C0
:10266000806800902068006820F0400021680860C1
:1026700000BF00BFC5F3002058B1606D40F00800F6
:10268000606500BF0020009020688068009000BF57
:1026900000BF606D78B32068406820F0E0002168DA
:1026A0004860012084F8510006F00200022802D0A0
:1026B00006F0010008B32068406820F0030021689C
:1026C0004860E06C50B11048E16C0865E06CFEF7C2
:1026D000A9FD18B1606D40F040006065A06C50B17C
:1026E0000948A16C0865A06CFEF79CFD18B1606DEF
:1026F00040F04000606503E003E02046FFF752FF32
:1027000068E700BF66E70000B56D000810B5044635
:102710000CB9012010BD606A38B96068B0F5827FDD
:1027200000D105E00021E16102E000212161616149
:102730000021A16294F8510028B9002084F85000CB
:10274000204600F047F8022084F851002068006815
:1027500020F0400021680860A08800F48270218980
:1027600001F404410843A18901F400610843217C7C
:1027700001F002010843217D01F001010843218B92
:1027800001F400710843217F01F038010843202142
:10279000095D01F080010843218D01F400510843D7
:1027A000216808600421A06901EA104094F824100F
:1027B00001F010010843216848602068C06920F4D6
:1027C00000602168C86100206065012084F8510024
:1027D00000209FE710B586B00446142101A8FDF73C
:1027E0009DFD86492068884255D100BF0020009099
:1027F0008348006840F480508149086008460068BA
:1028000000F48050009000BF00BF00BF0020009087
:102810007B481438006840F0010079491439086099
:102820000846006800F00100009000BF00BFE020F3
:1028300001900220029000200390032004900520C4
:10284000059001A96F48FEF7D9FD6F486F490860F0
:102850004FF0C060486000216C488160C1604FF457
:1028600080610161002141618161C1610162416258
:10287000FEF7F0FC08B1FEF7D1F900BF6348E06451
:10288000846300BF002205212320FFF789FA23205B
:10289000FFF776FAAFE05E492068884257D100BF63
:1028A000002000905648001F006840F480405449C2
:1028B000091F08600846006800F48040009000BFCF
:1028C00000BF00BF002000904D481438006840F061
:1028D00002004B49143908600846006800F0020005
:1028E000009000BF00BF4FF47040019002200290A2
:1028F00000200390032004900520059001A945487D
:10290000FEF77CFD444845490860002048600021EE
:1029100042488160C1604FF48061016100214161E2
:102920008161C16101624162FEF794FC08B1FEF76A
:1029300075F900BF3948E064846300BF00220521B7
:102940002420FFF72DFA2420FFF71AFA53E0344928
:10295000206888424FD100BF002000902848001F07
:10296000006840F400402649091F086008460068D6
:1029700000F40040009000BF00BF00BF00200090A6
:102980001F481438006840F004001D4914390860DD
:102990000846006800F00400009000BF00BF00BFC0
:1029A000002000900846006840F0020008600846D9
:1029B000006800F00200009000BF00BF4FF44060CC
:1029C0000190022002900020039003200490062032
:1029D000059001A91348FEF711FD20200190022067
:1029E000029000200390032004900620059001A986
:1029F0000848FEF703FD06B010BD0000003001409E
:102A0000443802400000024010640240B80A00202E
:102A1000003800400004024058600240180B0020BB
:102A2000003C0040000802402DE9F8430446884677
:102A300016461D464FF000096068B0F5827F0DD143
:102A4000A06858B9042084F85100334642464146F4
:102A50002046009500F077F9BDE8F88300BF94F8B0
:102A60005000012801D10220F6E7012084F850002F
:102A700000BFFEF7C1FD074694F85100012802D0BF
:102A80004FF002097EE0B8F1000F00D016B94FF008
:102A9000010977E0042084F8510000206065C4F843
:102AA0003880A687E6872063A086E086206460647D
:102AB000A068B0F5004F0BD12068006820F04000FE
:102AC000216808602068006820F480402168086060
:102AD0002068006800F04000402805D020680068A9
:102AE00040F0400021680860E068F8B91AE020680A
:102AF000806800F0010050B12068007BA16B087075
:102B0000A06B401CA063E08F401EE0870AE0FEF748
:102B100073FDC01BA84201D3681C00B915B94FF062
:102B200003092FE0E08F0028E1D11EE01AE02068C1
:102B3000806800F0010050B12068C068A16B088077
:102B4000A06B801CA063E08F401EE0870AE0FEF7C8
:102B500053FDC01BA84201D3681C00B915B94FF042
:102B600003090FE0E08F0028E1D13A4629462046CC
:102B700004F02AF908B120206065606D08B14FF0BB
:102B8000010900BF012084F8510000BF002084F833
:102B9000500000BF48465FE72DE9F84F04468846DD
:102BA00016461D464FF0000A00BF94F85000012859
:102BB00002D10220BDE8F88F012084F8500000BF48
:102BC000FEF71AFD0746B14694F85100012802D0DD
:102BD0004FF0020AADE0B8F1000F00D016B94FF087
:102BE000010AA6E0032084F8510000206065C4F8C3
:102BF0003080A686E686A063A087E08760642064B4
:102C0000A068B0F5004F0BD12068006820F04000AC
:102C1000216808602068006840F4804021680860EE
:102C20002068006800F04000402805D02068006857
:102C300040F0400021680860E068B0F5006F2FD1D7
:102C4000606810B1B9F1010F09D1206B00882168CB
:102C5000C860206B801C2063E08E401EE0861BE075
:102C60002068806800F0020002280AD1206B0088EA
:102C70002168C860206B801C2063E08E401EE086C7
:102C80000AE0FEF7B9FCC01BA84201D3681C00B9DA
:102C900015B94FF0030A4CE0E08E0028E0D12EE099
:102CA000606810B1B9F1010F09D1206B007821687B
:102CB0000873206B401C2063E08E401EE0861BE002
:102CC0002068806800F0020002280AD1206B00789A
:102CD00021680873206B401C2063E08E401EE08654
:102CE0000AE0FEF789FCC01BA84201D3681C00B9AA
:102CF00015B94FF0030A1CE0E08E0028E0D13A46F7
:102D00002946204604F0AAF808B120206065A06892
:102D100050B900BF002000902068C0680090206873
:102D20008068009000BF00BF606D08B14FF0010ADD
:102D300000BF012084F8510000BF002084F850003B
:102D400000BF504636E72DE9FF5F044688469146AE
:102D50001D460E9E012002900020019000BF94F8B5
:102D60005000012803D1022004B0BDE8F09F0120EB
:102D700084F8500000BFFEF73FFC074694F851B0BE
:102D800060680390AA46BBF1010F0BD00398B0F521
:102D9000827F04D1A06810B9BBF1040F02D00220D9
:102DA0000190DBE0B8F1000F03D0B9F1000F00D0C3
:102DB00015B901200190D1E094F85100042802D007
:102DC000052084F8510000206065C4F83890E5873C
:102DD000A587C4F83080E586A586206460642068F5
:102DE000006800F04000402805D02068006840F0EE
:102DF000400021680860E068B0F5006F4AD1606863
:102E000010B1BAF1010F09D1206B00882168C860A8
:102E1000206B801C2063E08E401EE08633E020683B
:102E2000806800F00200022810D1E08E70B1029894
:102E300001280BD1206B00882168C860206B801CA2
:102E40002063E08E401EE0860020029020688068AB
:102E500000F0010068B1E08F58B12068C068A16B34
:102E60000880A06B801CA063E08F401EE0870120DB
:102E70000290FEF7C1FBC01BB04204D3701C10B11E
:102E8000032001906AE0E08E0028C8D1E08F00287E
:102E9000C5D14AE0606810B1BAF1010F09D1206BC9
:102EA000007821680873206B401C2063E08E401E70
:102EB000E08634E02068806800F00200022810D12B
:102EC000E08E70B1029801280BD1206B0078216848
:102ED0000873206B401C2063E08E401EE0860020BB
:102EE00002902068806800F0010068B1E08F58B15E
:102EF0002068C068A16B0870A06B401CA063E08FC5
:102F0000401EE08701200290FEF776FBC01BB04216
:102F100001D3701C00B916B9032001901EE0E08EA9
:102F20000028C7D1E08F0028C4D13A463146204658
:102F300003F094FF20B101200190202060650DE096
:102F4000A06850B900BF002000902068C0680090C1
:102F500020688068009000BF00BF00BF012084F897
:102F6000510000BF002084F8500000BF0198FBE62C
:102F70007047704710B50346002200BF93F83C002D
:102F8000012801D1022010BD012083F83C0000BFC0
:102F900022F0FF00CC6840EA040222F440708C6802
:102FA00040EA040222F480604C6840EA040222F401
:102FB00000600C6840EA040222F480500C6940EA88
:102FC000040222F400504C6940EA040222F48040DA
:102FD000CC6940EA04021868426400BF002083F80C
:102FE0003C0000BF00BFCEE730B502460B4600BF35
:102FF00092F83C00012801D1022030BD012082F866
:103000003C0000BF022082F83D0010684468106850
:10301000816824F070041868044310684460184DF7
:103020001068A8421BD01068B0F1804F17D0154D22
:103030001068A84213D0144D1068A8420FD0134D49
:103040001068A8420BD0124D1068A84207D0114D4D
:103050001068A84203D0104D1068A84205D121F095
:1030600080015868014310688160012082F83D00AA
:1030700000BF002082F83C0000BF00BFBDE7000099
:10308000000001400004004000080040000C004027
:1030900000040140004001400018004010B5044603
:1030A0000CB9012010BD94F83D0028B9002084F827
:1030B0003C00204600F026F8022084F83D00211D47
:1030C000206804F0C7FA012084F8460000BF84F8A5
:1030D0003E0001213F20015540200155412001556E
:1030E00000BF00BF012084F8420043200155442066
:1030F00001554520015500BF012084F83D00002006
:10310000D0E7000038B5044624492068884218D129
:1031100000BF002000902248006840F010002049C5
:1031200008600846006800F01000009000BF00BF73
:10313000002205213620FEF733FE3620FEF720FE62
:103140002BE018492068884211D100BF0020009070
:103150001348001D006840F400301149091D086043
:103160000846006800F40030009000BF15E00E49EA
:103170002068884211D100BF002000900848001D3F
:10318000006840F480200649091D08600846006870
:1031900000F48020009000BF00BF38BD0010004048
:1031A000403802400044014000480140014691F887
:1031B0003D00012801D001207047022081F83D0028
:1031C0000868C06840F001000B68D8601A4B0868B6
:1031D00098421BD00868B0F1804F17D0174B086891
:1031E000984213D0164B086898420FD0154B0868C8
:1031F00098420BD0144B0868984207D0134B0868CC
:10320000984203D0124B086898420CD10868806835
:1032100000F00702062A0CD00868006840F00100A0
:103220000B68186005E00868006840F001000B6852
:1032300018600020C0E700000000014000040040CA
:1032400000080040000C0040000401400040014024
:10325000001800402DE9F04104460D4614B9012044
:10326000BDE8F08194F83D0028B9002084F83C00C6
:10327000204600F053F8022084F83D002068806862
:1032800044F20701884321688860211D206804F00A
:10329000E1F92068D0F80880206886692068076A0C
:1032A000286840EA080840F203308643A969A86804
:1032B00040EA0120064340F60C4086434FF2F000FE
:1032C0008643E969E86840EA01200643286900016D
:1032D000296A40EA0130064327F0220727F08807D1
:1032E0006969686840EA011007432068C0F80880EF
:1032F0002068866120680762012084F8460084F80F
:103300003E0001213F200155012084F84200432066
:103310000155012084F83D000020A1E710B586B0DA
:103320000446142101A8FCF7F9FF2068B0F1804F92
:1033300054D100BF002000904748006840F00100D1
:10334000454908600846006800F00100009000BF91
:1033500000BF00BF002000903F481038006840F0D8
:1033600001003D49103908600846006800F001007E
:10337000009000BF00BF00BF00200090084600681A
:1033800040F0020008600846006800F0020000906B
:1033900000BF00BF4FF400400190022002900020C7
:1033A000039004900120059001A92C48FEF726F80F
:1033B0000820019002200290002003900490012038
:1033C000059001A92648FEF719F8002205211C20C6
:1033D000FEF7E6FC1C20FEF7D3FC3AE0214920680A
:1033E000884236D100BF002000901B48006840F0A2
:1033F0000200194908600846006800F002000090C9
:1034000000BF00BF00BF00200090134810380068C4
:1034100040F002001049103908600846006800F0CA
:103420000200009000BF00BF3020019002200290F7
:103430000020039004900220059001A90848FDF7A0
:10344000DDFF002205211D20FEF7AAFC1D20FEF74E
:1034500097FC06B010BD000040380240000002405A
:10346000000402400004004070472DE9F04104468A
:103470000D461646002700BF94F83C00012802D1F3
:103480000220BDE8F081012084F83C0000BF96B91D
:10349000EB68D5E90012206804F036FA20688069EC
:1034A00020F00C002168886120688069A9680843C1
:1034B0002168886141E0042E13D1EB68D5E9001240
:1034C000206804F069FA2068806920F4406021686F
:1034D000886120688069A96840EA012021688861C4
:1034E0002BE0082E12D1EB68D5E90012206804F019
:1034F00070FA2068C06920F00C002168C86120685B
:10350000C069A96808432168C86116E00C2E13D170
:10351000EB68D5E90012206804F077FA2068C069EA
:1035200020F440602168C8612068C069A96840EA49
:1035300001202168C86100E0012700BF002084F855
:103540003C0000BF38469CE710B504460CB901208A
:1035500010BD94F83D0028B9002084F83C002046B6
:1035600000F026F8022084F83D00211D206804F0B8
:1035700071F8012084F8460000BF84F83E00012164
:103580003F200155402001554120015500BF00BF9B
:10359000012084F842004320015544200155452074
:1035A000015500BF012084F83D000020D0E7000055
:1035B00010B586B00446142101A8FCF7AFFE1A49E5
:1035C000206888422ED100BF002000901748006874
:1035D00040F48030154908600846006800F48030E7
:1035E000009000BF00BF00BF002000900F481438BB
:1035F000006840F010000D49143908600846006862
:1036000000F01000009000BF00BF202001900220B9
:1036100002900020039004900320059001A9044823
:10362000FDF7ECFE06B010BD0040014044380240FA
:103630000010024010B5044620680069C0F3400045
:10364000D8B12068C068C0F34000B0B16FF002008C
:1036500021680861012020772068806900F003005C
:1036600018B12046FFF700FF05E0204600F09EF964
:10367000204600F04BFB0020207720680069C0F353
:103680008000D8B12068C068C0F38000B0B16FF08E
:10369000040021680861022020772068806900F416
:1036A000407018B12046FFF7DFFE05E0204600F02D
:1036B0007DF9204600F02AFB002020772068006971
:1036C000C0F3C000D8B12068C068C0F3C000B0B17A
:1036D0006FF0080021680861042020772068C06925
:1036E00000F0030018B12046FFF7BEFE05E02046BB
:1036F00000F05CF9204600F009FB002020772068EC
:103700000069C0F30010D8B12068C068C0F3001091
:10371000B0B16FF0100021680861082020772068A0
:10372000C06900F4407018B12046FFF79DFE05E027
:10373000204600F03BF9204600F0E8FA0020207710
:103740002068006900F0010058B12068C06800F0EE
:10375000010030B16FF0010021680861204600F0DF
:103760005DFB20680069C0F3C01058B12068C068D4
:10377000C0F3C01030B16FF08000216808612046AE
:10378000FFF7F6FB20680069C0F3801058B120688D
:10379000C068C0F3801030B16FF04000216808614C
:1037A000204600F047FB20680069C0F3401058B184
:1037B0002068C068C0F3401030B16FF0200021686D
:1037C00008612046FFF7D5FB10BD000010B586B09C
:1037D0000446142101A8FCF7A1FD6849206888422D
:1037E0001ED100BF002000906548006840F0100026
:1037F000634908600846006800F01000009000BFB0
:1038000000BF4FF4D44001900220029000200390AA
:1038100004900120059001A95A48FDF7EFFDAAE0A8
:103820005949206888421ED100BF002000905448AA
:10383000006840F00800524908600846006800F03F
:103840000800009000BF00BF4FF40040019002202C
:1038500002900020039004900220059001A94B489B
:10386000FDF7CCFD87E04A49206888421DD100BFA2
:10387000002000904248006840F001004049086084
:103880000846006800F00100009000BF00BF0C2057
:1038900001900220029000200390049002200590E5
:1038A00001A93C48FDF7AAFD65E03B492068884234
:1038B0001ED100BF002000903148006840F0040095
:1038C0002F4908600846006800F00400009000BF1F
:1038D00000BF4FF44070019002200290002003903E
:1038E00004900320059001A92C48FDF787FD42E0D4
:1038F0002B49206888421DD100BF0020009020483D
:10390000006840F002001E4908600846006800F0A8
:103910000200009000BF00BF8815019002200290B5
:103920000020039004900320059001A91D48FDF795
:1039300065FD20E01C49206888421CD100BF0020A2
:1039400000900F48006840F002000D4908600846EA
:10395000006800F00200009000BF00BF4815019011
:10396000022002900020039004900320059001A9FA
:103970000C48FDF743FD06B010BD000000000140FB
:10398000303802400010024000080040000C0240A5
:10399000000C00400000024000040140000802400A
:1039A000004401400004024000480140704770B5E7
:1039B00004460D460CB9012070BD94F83D0028B9AD
:1039C000002084F83C00204600F024F8022084F80F
:1039D0003D00211D206803F03DFE2068006820F0B6
:1039E0000800216808602068006828432168086092
:1039F000012084F8460084F83E0001213F20015553
:103A0000012084F8420043200155012084F83D0044
:103A10000020D1E770472DE9F04104460D461646D7
:103A2000002700BF94F83C00012802D10220BDE825
:103A3000F081012084F83C0000BF36B1042E1BD079
:103A4000082E31D00C2E5ED145E02946206803F0C7
:103A50007FFE2068806940F0080021688861206846
:103A6000806920F0040021688861206880692969E4
:103A700008432168886148E02946206803F0A0FED9
:103A80002068806940F4006021688861206880694E
:103A900020F480602168886120688069296940EA93
:103AA00001202168886130E02946206803F0C6FEC5
:103AB0002068C06940F008002168C8612068C069BA
:103AC00020F004002168C8612068C06929690843A2
:103AD0002168C86119E02946206803F0EBFE2068E0
:103AE000C06940F400602168C8612068C06920F4A2
:103AF00080602168C8612068C069296940EA0120A6
:103B00002168C86101E0012700BF00BF00BF00209D
:103B100084F83C0000BF384689E710B504460CB96C
:103B2000012010BD94F83D0028B9002084F83C0025
:103B3000204600F025F8022084F83D00211D206871
:103B400003F088FD012084F8460000BF84F83E00A1
:103B500001213F200155402001554120015500BF62
:103B600000BF012084F84200432001554420015544
:103B70004520015500BF012084F83D000020D0E71A
:103B800010B586B00446142101A8FCF7C7FB5849BC
:103B90002068884218D100BF002000905548006876
:103BA00040F00100534908600846006800F0010039
:103BB000009000BF00BF002205211B20FEF7F0F897
:103BC0001B20FEF7DDF890E04B49206888423AD18F
:103BD00000BF002000904748001F006840F004002C
:103BE0004449091F08600846006800F0040000907E
:103BF00000BF00BF00BF002000903E48143800689E
:103C000040F008003B49143908600846006800F09D
:103C10000800009000BF00BF4FF440500190022008
:103C200002900020039004900220059001A93348DF
:103C3000FDF7E4FB002205211E20FEF7B1F81E204F
:103C4000FEF79EF851E02E492068884239D100BF26
:103C5000002000902748001F006840F00800254918
:103C6000091F08600846006800F00800009000BFC7
:103C700000BF00BF002000901E481438006840F0CC
:103C800001001C49143908600846006800F0010072
:103C9000009000BF00BF032001900220029000208E
:103CA000039004900220059001A91648FDF7A6FB99
:103CB000002205213220FEF773F83220FEF760F86B
:103CC00013E01149206888420FD100BF0020009006
:103CD0000848006840F0020006490860084600688D
:103CE00000F00200009000BF00BF06B010BD000051
:103CF000000001404438024000080040000C02402F
:103D0000000C004000000240000401407047000029
:103D100070B504460D4615B994F83E000BE0042D2D
:103D200002D13F20005D06E0082D02D14020005D59
:103D300001E04120005D012801D0012070BD1DB9C6
:103D4000022084F83E000EE0042D03D102213F2022
:103D5000015508E0082D03D102214020015502E061
:103D600002214120015501222946206803F0DEFC92
:103D700023492068884203D022492068884201D123
:103D8000012000E0002028B12068406C40F4004091
:103D9000216848641A49206888421BD02068B0F125
:103DA000804F17D018492068884213D017492068DF
:103DB00088420FD01649206888420BD011492068EC
:103DC000884207D013492068884203D012492068EE
:103DD00088420CD12068806800F00706062E0CD0BF
:103DE0002068006840F001002168086005E0206854
:103DF000006840F001002168086000209EE7000094
:103E000000000140000401400004004000080040A0
:103E1000000C0040004001400018004010B504466E
:103E200003492068884201D1FDF710FF10BD000052
:103E3000001400407047F8B504460E46174694F843
:103E40003E00202836D106B10FB90120F8BD00BFD1
:103E500094F83C00012801D10220F7E7012084F802
:103E60003C0000BF20633A463146204604F082F809
:103E70000546EDB9206B012819D100BF0020009044
:103E800020680068009020684068009000BF00BF74
:103E900000BF00BF21680C3151E8001F41F0100045
:103EA00021680C3141E80002002AF3D100E001252D
:103EB0002846CBE70220C9E770B505460C460E49F7
:103EC0002868884207D1204603F00AFA28220B49C5
:103ED0000B48FFF7B0FF0B49286888420AD132230C
:103EE00022460949094800F0D3FB28220649074821
:103EF000FFF7A1FF70BD0000001401401C0100206D
:103F00009C0F00200048004044010020580F002072
:103F1000704700002DE9F84F0446206805682068C6
:103F2000C668206847694FF00009CA4605F00F09C6
:103F3000B9F1000F0AD105F0200038B106F02000D9
:103F400020B1204603F083FEBDE8F88FB9F1000FE1
:103F50007CD007F0010018B906F49070002875D0E5
:103F600005F0010030B106F4807018B1206C40F00B
:103F70000100206405F0040030B107F0010018B121
:103F8000206C40F00200206405F0020030B107F020
:103F9000010018B1206C40F00400206405F0080016
:103FA00048B106F0200010B907F0010018B1206CEC
:103FB00040F008002064206C002846D005F0200066
:103FC00028B106F0200010B1204603F040FE206822
:103FD0004069C0F3801A206C00F0080010B9BAF1F3
:103FE000000F2DD0204603F0D9FD2068406900F075
:103FF0004000402820D100BF00BF2168143151E8A3
:10400000001F21F040002168143141E80002002A1D
:10401000F3D100BFA06B50B17548A16B0865A06BD0
:10402000FDF700F988B1A06B016D88470DE02046CF
:10403000FFF76EFF09E009E02046FFF769FF04E0A3
:104040002046FFF765FF002020647DE7206B0128F4
:1040500076D105F01000002872D006F0100000287C
:10406000FAD000BF0020009020680068009020680F
:104070004068009000BF00BF2068406900F0400029
:1040800040285ED1A06B006840681FFA80F8B8F144
:10409000000F54D0A08D404551DDA4F82E80A06BB8
:1040A000C069B0F5807F43D000BF00BF21680C31EC
:1040B00051E8001F21F4807021680C3141E80002B2
:1040C000002AF3D100BF00BF00BF2168143151E8BE
:1040D000001F21F001002168143141E80002002A8C
:1040E000F3D100BF00BF00BF2168143151E8001FA9
:1040F00021F040002168143141E80002002AF3D188
:1041000000BF202084F83E000020206300BF00BFD5
:1041100021680C3151E8001F21F0100021680C319A
:1041200041E80002002AF3D100BFA06BFDF724F89C
:10413000A08DE28D801A81B22046FFF7BDFE03E715
:1041400040E0A08DE18D401A1FFA80F8E08DC0B3E9
:10415000B8F1000F35D000BF00BF21680C3151E825
:10416000001F21F4907021680C3141E80002002A00
:10417000F3D100BF00BF00BF2168143151E8001F18
:1041800021F001002168143141E80002002AF3D136
:1041900000BF202084F83E000020206300BF00BF45
:1041A00021680C3151E8001F21F0100021680C310A
:1041B00041E80002002AF3D100BF41462046FFF744
:1041C0007BFEC1E605F0800030B106F0800018B13A
:1041D000204603F035FFB7E605F0400030B106F0A9
:1041E000400018B1204603F00FFDADE600BFABE67E
:1041F000697A000810B504460CB9012010BDA06909
:1042000000B100E000BF94F83D0028B9002084F818
:104210003C00204600F028F8242084F83D00206867
:10422000C06820F400502168C860204603F08CFD6F
:104230002068006920F49040216808612068406986
:1042400020F02A00216848612068C06840F40050CE
:104250002168C86000202064202084F83D0084F894
:104260003E000020CAE7000010B586B004461421C5
:1042700001A8FCF753F8F5492068884238D100BFFF
:1042800000200090F248006840F40020F0490860E7
:104290000846006800F40020009000BF00BF00BF87
:1042A00000200090EA481038006840F00100E8491A
:1042B000103908600846006800F00100009000BF57
:1042C00000BF0320019002200290002003900320F1
:1042D00004900820059001A9DE48FDF78FF8002220
:1042E00005213420FDF75CFD3420FDF749FDAAE1EE
:1042F000D9492068884255D100BF00200090D44899
:10430000006840F48010D24908600846006800F454
:104310008010009000BF00BF00BF00200090CC487C
:104320001038006840F00400C94910390860084698
:10433000006800F00400009000BF00BF00BF002034
:1043400000900846006840F00800086008460068D1
:1043500000F00800009000BF00BF88140190022008
:10436000029000200390032004900820059001A9EA
:10437000BA48FDF743F80420019002200290002083
:104380000390032004900820059001A9B448FDF78C
:1043900035F8002205213520FDF702FD3520FDF717
:1043A000EFFC50E1AF49206888423BD100BF0020BC
:1043B0000090A748001D006840F01000A449091DA6
:1043C00008600846006800F01000009000BF00BFC1
:1043D00000BF002000909E481038006840F00100A7
:1043E0009B49103908600846006800F00100009001
:1043F00000BF00BF4FF4C060019002200290002077
:104400000390032004900720059001A99148FCF730
:10441000F5FF002205212520FDF7C2FC2520FDF730
:10442000AFFC10E190492068884238D100BF0020DD
:1044300000908748006840F40030854908600846CD
:10444000006800F40030009000BF00BF00BF0020F3
:1044500000907F481038006840F008007C4910390F
:1044600008600846006800F00800009000BF00BF28
:10447000602001900220029000200390032004900D
:104480000720059001A97648FCF7B8FF0022052116
:104490002620FDF785FC2620FDF772FCD3E073494A
:1044A0002068884275D100BF0020009068480068ED
:1044B00040F48020664908600846006800F48020C7
:1044C000009000BF00BF00BF00200090604810387F
:1044D000006840F002005E49103908600846006834
:1044E00000F00200009000BF00BF4FF44060019058
:1044F00002200290002003900320049007200590E2
:1045000001A95B48FCF77AFF5A485B4908604FF005
:1045100000604860002158488160C1604FF48061AC
:104520000161002141618161C16101624162FCF769
:1045300091FE08B1FCF772FB00BF4F48A063846393
:1045400000BF4C4848304D49086040054860402154
:104550004A4881600021C1604FF4806101610021FF
:1045600041618161C16101624162FCF773FE08B182
:10457000FCF754FB00BF41486063846300BF002226
:1045800005212720FDF70CFC2720FDF7F9FB5AE059
:10459000FFE73B492068884255D100BF00200090CA
:1045A0002B48001D006840F020002949091D0860C3
:1045B0000846006800F02000009000BF00BF00BF68
:1045C0000020009022481038006840F00400204984
:1045D000103908600846006800F00400009000BF31
:1045E00000BFC02001900220029000200390032011
:1045F00004900820059001A91848FCF7FFFE214807
:10460000214908608005486000211F488160C16021
:104610004FF480610161002141618161C1610162EA
:104620004162FCF717FE08B1FCF7F8FA00BF164824
:10463000A063846300BF002205214720FDF7B0FB83
:104640004720FDF79DFB06B010BD0000004C004068
:104650004038024000000240005000400008024084
:10466000000C02400010014000440040004800409F
:104670000004024028600240E00F002040100020AB
:104680000014014028640240A010002070477047C9
:104690002DE9F84F04460E46174699464FF0000A9A
:1046A00094F83D0020285AD106B117B90120BDE881
:1046B000F88F00BF94F83C00012801D10220F6E7F2
:1046C000012084F83C0000BF00202064212084F8F1
:1046D0003D00FCF791FF8246A784E784A068B0F50F
:1046E000805F04D1206910B90025B04602E035464C
:1046F0004FF0000800BF002084F83C0000BF1BE022
:104700005346002280212046CDF8009003F0C8FCDB
:1047100008B10320CBE745B9B8F80000C0F30800A2
:104720002168486008F1020803E0287821684860A1
:104730006D1CE08C401EE084E08C0028E0D15346E4
:10474000002240212046CDF8009003F0A9FC08B1DA
:104750000320ACE7202084F83D000020A7E70220DA
:10476000A5E7704700BFFEE710B50248FCF7D2FF8F
:1047700010BD00008408002010B50248FDF734F891
:1047800010BD000084080020C16AB1F52A0F02D1D3
:104790000121C16205E0C16AB1F12A4F01D10821AE
:1047A000C1627047F8B5054600200090AC6B94F8E4
:1047B0003D60394800681921B0FBF1F04FF47A717F
:1047C000B0FBF1F0C0EBC00000EB8000009000BF38
:1047D000009820B9206C40F02000206409E0009887
:1047E000401E00902068006800F40070B0F5007F63
:1047F000EED000BF606B10B10020616BC863A06B8E
:1048000010B10020A16BC8632068006820F48060AC
:104810002168086000206085606B10B10020616B2A
:104820000865A06B10B10020A16B086520680068C6
:1048300020F001002168086094F83D0060280AD14A
:10484000202084F83D00002084F83E0020642046AB
:10485000FCF75EFF1EE006F02800282811D1206832
:10486000006840F00100216808602068006840F49A
:1048700080602168086000202063282084F83D00C3
:1048800005E0202084F83D00002084F83E0020460A
:10489000FDF797F8F8BD0000180000202DE9F04161
:1048A000044694F83D6094F83E70102F01D0402FDC
:1048B00007D1222E05D12068006820F4006021680D
:1048C000086006F02800282805D100202063282051
:1048D00084F83D0010E02068406800F40060B0F506
:1048E000006F07D0602E05D0202084F83D00002006
:1048F00084F83E00002020632068406800F40060D7
:10490000B0F5006F40D12068406820F40060216855
:104910004860606B90F83500012814D04848616BFE
:104920000865606BFCF77EFC00285BD0206800689F
:1049300020F0010021680860202084F83D00606BB1
:10494000016D88474EE03E48A16B0865A06BFCF7FF
:1049500069FC002846D020684069C0F3801030B15F
:1049600020680069616A0870606A401C60622068A3
:10497000006820F0010021680860202084F83D00D4
:10498000A06B016D88472DE094F83D0060281AD196
:10499000202084F83D000020206420684069C0F396
:1049A000801030B120680069616A0870606A401C3C
:1049B00060622068006820F00100216808602046DD
:1049C000FCF7A6FE0EE020684069C0F3801030B10D
:1049D00020680069616A0870606A401C6062204655
:1049E000FCF7EFFF256C05F0010058B905F0020057
:1049F000022807D005F00400042803D005F00800C1
:104A0000082805D12068406820F4E06021684860EB
:104A100094F83D60206C00F0040004280ED1282E8C
:104A20000CD10848E06200202063202084F83D007B
:104A3000002084F83E002046FDF7ACF8BDE8F08188
:104A4000A54700080000FFFF70B50446E56A608DC9
:104A5000042810D12068406820F4806021684860F4
:104A600020680069616A0870606A401C6062608D3D
:104A7000401E60857AE0608D03281AD12068406866
:104A800020F4806021684860042D07D0022D05D0F5
:104A90002068006820F48060216808602068006950
:104AA000616A0870606A401C6062608D401E6085AB
:104AB0005CE0608D02284FD1012D01D0102D06D170
:104AC0002068006820F480602168086012E0042DEE
:104AD00001D0022D06D12068006840F48060216872
:104AE000086007E0102D05D02068006840F40070D1
:104AF0002168086020680069616A0870606A401C6B
:104B00006062608D401E608520680069616A08707F
:104B1000606A401C6062608D401E6085206840684D
:104B200020F4407021684860202084F83D0094F80B
:104B30003E00402807D1002084F83E002063204634
:104B4000FDF72BF812E0002084F83E0012202063CD
:104B50002046FDF720F809E020680069616A0870C6
:104B6000606A401C6062608D401E608570BD70B5DB
:104B7000044694F83D00222869D1658D032D13D990
:104B800020680069616A0870606A401C6062608D1C
:104B9000401E6085608D032858D12068406820F44D
:104BA00080602168486051E0E06A02284ED0012D03
:104BB00001D0002D4AD1204600F0ACFC68BB206833
:104BC000006820F48060216808602068406820F454
:104BD000E0602168486020680069616A0870606A66
:104BE000401C6062608D401E6085202084F83D007E
:104BF00094F83E00402807D1002084F83E0020634E
:104C00002046FCF7CAFF21E0002084F83E00122075
:104C100020632046FCF7BFFF18E02068406820F4BE
:104C2000E0602168486020680069616A0870606A15
:104C3000401C6062608D401E6085202084F83D002D
:104C4000002084F83E002046FCF7BBFE00BF70BD8C
:104C500070B50446E56A94F83D00212847D1608D7F
:104C600050B1606A007821680861606A401C606227
:104C7000608D401E60853AE0082D16D0202D14D09E
:104C800015F5803F11D02068406820F4E06021686D
:104C9000486011202063002084F83E00202084F822
:104CA0003D002046FCF778FF21E02068406820F4B2
:104CB000E060216848602068006840F40070216866
:104CC000086000202063202084F83D0094F83E0016
:104CD000402806D1002084F83E002046FCF75EFF05
:104CE00005E0002084F83E002046FCF755FF70BD2B
:104CF0002DE9F041044694F83D5094F83E70E66A80
:104D0000208DB0BB212D3CD1082E16D0202E14D0E2
:104D100016F5803F11D02068406820F4E0602168DB
:104D2000486011202063002084F83E00202084F891
:104D30003D002046FCF730FF44E02068406820F446
:104D4000E060216848602068006840F400702168D5
:104D5000086000202063202084F83D0094F83E0085
:104D6000402807D1002084F83E002046FCF716FFBB
:104D700028E006E0002084F83E002046FCF70CFF07
:104D800020E0212D03D0402F1CD1222D1AD1608D7F
:104D900030B92068406820F480602168486011E0E4
:104DA00094F83E00402803D1204600F0A5F909E020
:104DB000606A007821680861606A401C6062608DEA
:104DC000401E6085BDE8F081416CC9B20268116186
:104DD000416B11B1416BC96B21B9816B41B1816BE1
:104DE000C96B29B10168496841F4006102685160EA
:104DF000704738B590F83E20C16A036B90F83D408B
:104E0000222C73D1046D64B9402A0AD100BF00245A
:104E100000940468646900940468A469009400BF65
:104E20001AE1046DC4B90469B4F5404F14D100BF50
:104E3000002400940468646900940468A4690094E0
:104E400000BF00BF0468246844F4807405682C60C7
:104E5000046D641C0465FFE0448D8CB900BF002420
:104E600000940468646900940468A469009400BF15
:104E700000BF0468246844F4007405682C60DDE019
:104E8000448D012C72D111F5803F30D10468246823
:104E900024F4806405682C600468646804F4006489
:104EA000B4F5006F10D10468246824F480640568A8
:104EB0002C6000BF002400940468646900940468B6
:104EC000A469009400BFB9E000BF00240094046806
:104ED000646900940468A469009400BF00BF04687A
:104EE000246844F4007405682C60A7E0A9E0082950
:104EF00023D0202921D0122B01D101291DD1042931
:104F00000AD0022908D0102906D00468246824F4A5
:104F1000806405682C6005E00468246844F48064BB
:104F200005682C6000BF0024009404686469009444
:104F30000468A469009400BF80E00468246824F435
:104F4000806405682C6000BF0024009404686469D4
:104F500000940468A469009400BF00BF046824683A
:104F600044F4007405682C6068E0FFE7448D022C6F
:104F70003BD1042910D002290ED010290CD004688E
:104F8000246824F4806405682C600468246844F470
:104F9000006405682C6005E00468246844F48064BB
:104FA00005682C600468646804F40064B4F5006F5C
:104FB00010D111F5803F07D0012905D0082903D071
:104FC000102901D0202905D10468646844F4805474
:104FD00005686C6000BF0024009404686469009454
:104FE0000468A469009400BF28E00468246844F4BD
:104FF000806405682C600468646804F40064B4F597
:10500000006F10D111F5803F07D0012905D0082984
:1050100003D0102901D0202905D10468646844F424
:10502000805405686C6000BF0024009404686469C3
:1050300000940468A469009400BF00BF00240465C4
:105040000AE000BF002400940468646900940468C6
:10505000A469009400BF00BF38BD90F83E104029FD
:105060000ED1016D29B9416C01F0FE010268116198
:1050700041E0416CC9B241F00101026811613AE0BE
:105080000169B1F5804F20D190F83D10212905D15B
:10509000416C01F0FE010268116105E0416CC9B28A
:1050A00041F0010102681161416B11B1416BC96BA3
:1050B00021B9816BF9B1816BC96BE1B101684968B4
:1050C00041F400610268516015E0016D41B9416C25
:1050D00001F44071F02242EAE111026811610AE034
:1050E000016D012907D1416C01F44071F12242EABE
:1050F000E11102681161704770B5044694F83D50A3
:10510000206D98B9E06C012807D1A06CC0B221686D
:105110000861206D801C20654CE0A06CC0F3072066
:1051200021680861206D401C206543E0206D012846
:1051300007D1A06CC0B221680861206D401C2065B9
:1051400038E0206D022835D1222D09D12068006871
:1051500040F4807021680860206D401C206529E0C3
:10516000608D60B1212D0AD1606A007821680861E4
:10517000606A401C6062608D401E60851AE0608D30
:10518000C0B9212D16D12068406820F4E060216864
:1051900048602068006840F40070216808600020C2
:1051A0002063202084F83D00002084F83E00204643
:1051B000FCF7F4FC70BD418D49B101680969426A90
:1051C0001170416A491C4162418D491E41857047F9
:1051D00070B5044694F83D50608DD8B120680069E0
:1051E000616A0870606A401C6062608D401E608564
:1051F000608D78B92A2D0DD12068406820F4806038
:105200002168486022202063282084F83D00204641
:10521000FCF71AFD70BD418D49B1416A09780268F9
:105220001161416A491C4162418D491E41857047A7
:1052300070B5044694F83D50608DD8B1606A00782E
:1052400021680861606A401C6062608D401E608554
:10525000608D78B9292D0DD12068406820F48060D8
:105260002168486021202063282084F83D002046E2
:10527000FCF7EBFC70BDF8B504460D46002794F82A
:105280003D0000F0280028281CD12068406820F448
:10529000806021684860C5F3800000B90127C5F32C
:1052A000C01010B9A08986B201E0208B86B200BF81
:1052B000002084F83C0000BF324639462046FCF707
:1052C00028FA0FE000BF002000902068406900909D
:1052D00020688069009000BF00BF00BF002084F8F4
:1052E0003C0000BFF8BD000070B5044694F83D5086
:1052F000E66A082E01D0202E1FD1282D1DD121486D
:10530000E0622068406820F4E060216848606FF443
:105310008060216848612068006820F4806021680E
:10532000086000202063202084F83D00002084F8DD
:105330003E002046FCF72EFC23E0212D1DD1114814
:10534000E06221202063202084F83D00002084F8C2
:105350003E002068406820F4E060216848606FF4F7
:105360008060216848612068006820F480602168BE
:1053700008602046FCF769FC03E06FF48060216858
:10538000486170BD0000FFFF38B5044694F83D50F9
:105390002068406820F4E0602168486000BF002079
:1053A00000902068406900902068006840F001008B
:1053B0002168086000BF00BF2068006820F480609A
:1053C000216808602068406800F40060B0F5006F54
:1053D00042D1222D01D02A2D1FD1A06B0068406838
:1053E0006085608D18B1206C40F004002064206856
:1053F000406820F4006021684860A06BFBF726FF3E
:10540000012829D04148A16B0865A06BFBF70AFF72
:1054100010B3A06B016D88471EE0606B00684068A8
:105420006085608D18B1206C40F004002064206815
:10543000406820F4006021684860606BFBF706FF5D
:10544000012809D03148616B0865606BFBF7EAFE03
:1054500010B1606B016D8847608D18B3206840699A
:10546000C0F3800048B120680069616A0870606A12
:10547000401C6062608D401E608520684069C0F3FA
:10548000801048B120680069616A0870606A401C39
:105490006062608D401E6085608D18B1206C40F0A8
:1054A00004002064206C18B12046FFF7F7F92BE0C8
:1054B0002A2D07D100202063282084F83D002046B3
:1054C000FCF7C2FB94F83D0028280DD11048E0629B
:1054D00000202063202084F83D00002084F83E0056
:1054E0002046FCF757FB0FE0206B222801D0222D2D
:1054F0000AD100202063202084F83D00002084F899
:105500003E002046FCF7A0FB38BD0000A547000880
:105510000000FFFF08B50146002000901048006819
:105520001922B0FBF2F04FF47A72B0FBF2F000EB0C
:105530008000009000BF0098401E0090009828B99D
:10554000086C40F020000864012008BD086800686D
:1055500000F40070B0F5007FEDD00020F5E700000A
:105560001800002000BF012003F09FFDFBE70000B2
:105570001FB5002000900190029003901548164935
:1055800008604FF480304860002113488160016159
:10559000017680F82010C162104981620021C1604B
:1055A0000121C161002180F8301001214161FBF728
:1055B000BBFC08B1FBF732FB0820009001200190F2
:1055C0000020029069460448FBF72CFB08B1FBF76A
:1055D00025FB1FBD00200140D80800200100000F5E
:1055E0001FB50020009001900290039015481649C5
:1055F00008604FF4803048600021134881600161E9
:10560000017680F82010C162104981620021C160DA
:105610000121C161002180F8301001214161FBF7B7
:1056200083FC08B1FBF7FAFA0820009001200190F2
:105630000020029069460448FBF7F4FA08B1FBF732
:10564000EDFA1FBD00210140200900200100000FDC
:105650001FB5002000900190029003901548164954
:1056600008604FF480304860002113488160016178
:10567000017680F82010C162104981620021C1606A
:105680000121C161002180F8301001214161FBF747
:105690004BFC08B1FBF7C2FA0C20009001200190EE
:1056A0000020029069460448FBF7BCFA08B1FBF7FA
:1056B000B5FA1FBD00220140680900200100000F5B
:1056C00008B500BF002000901A48006840F4800030
:1056D000184908600846006800F48000009000BF88
:1056E00000BF00BF002000900846006840F4001092
:1056F00008600846006800F40010009000BF00BF7A
:10570000002205210E20FCF74BFB0E20FCF738FB96
:10571000002205210F20FCF743FB0F20FCF730FB94
:10572000002205213820FCF73BFB3820FCF728FB42
:1057300008BD00003038024000B5C7B060A002F0DC
:1057400059FF66A002F056FF67A002F053FF6AA05F
:1057500002F050FF1C226C4940A8FAF7C4FD00215A
:1057600040A803F0B3FC694908600846006810B11E
:1057700067A002F03FFF1C2263491C3139A8FAF7E9
:10578000B2FD002139A803F0A1FC68490860084671
:10579000006810B166A002F02DFF1C225A49383172
:1057A00032A8FAF7A0FD002132A803F08FFC674968
:1057B00008600846006810B165A002F01BFF1C22BB
:1057C000514954312BA8FAF78EFD00212BA803F084
:1057D0007DFC664908600846006810B164A002F0CC
:1057E00009FF1C224849703124A8FAF77CFD0021EA
:1057F00024A803F06BFC664908600846006810B1F5
:1058000064A002F0F7FE1C223F498C311DA8FAF774
:105810006AFD00211DA803F059FC6549086008468F
:10582000006810B163A002F0E5FE1C223649A831E1
:1058300016A8FAF758FD002116A803F047FC6449A2
:1058400008600846006810B162A002F0D3FE1C2276
:105850002D49C4310FA8FAF746FD00210FA803F027
:1058600035FC634908600846006810B161A002F089
:10587000C1FE1C222449E03108A8FAF734FD0021BA
:1058800008A803F023FC624908600846006810B1CC
:1058900058A002F0AFFE1C221B49FC3101A8FAF708
:1058A00022FD002101A803F011FC5A4908600846B6
:1058B000006810B158A002F09DFE47B000BD000086
:1058C00072746F73206C6F6164696E672E2E2E2E5A
:1058D0002E2E2E2E2E2E2E0D0A0000005C202020B3
:1058E0007C2020202F0D0A002D202078636A6B2059
:1058F000202D0D0A000000002F202020207C2020D9
:10590000205C0D0A0000000070AF00089800002025
:105910007267625F7461736B5F63726561745F73FA
:105920007563657373210D0A0000000000000020FC
:105930006B65795F7461736B5F63726561745F73CC
:105940007563657373210D0A0000000004000020D8
:1059500070776D5F7461736B5F63726561745F73A1
:105960007563657373210D0A00000000A400002018
:1059700062757A7A6965725F7461736B5F63726571
:1059800061745F737563657373210D0A0000000015
:10599000A0000020626C655F7461736B5F63726569
:1059A00061745F737563657373210D0A00000000F5
:1059B000AC000020736275735F7461736B5F637218
:1059C0006561745F737563657373210D0A00000070
:1059D000A80000207732357133325F7461736B5FDA
:1059E00063726561745F737563657373210D0A007B
:1059F000B00000206D6F746F725F7461736B5F63D2
:105A0000726561745F737563657373210D0A0000BD
:105A1000C4000020D80000204F4C45445F746173DF
:105A20006B5F63726561745F737563657373210D7A
:105A30000A00000000B587B0142102A8FAF76EFC36
:105A400000BF002001906248006840F010006049EB
:105A500008600846006800F01000019000BF00BF19
:105A600000BF002001900846006840F080000860F8
:105A70000846006800F08000019000BF00BF00BF32
:105A8000002001900846006840F0040008600846C5
:105A9000006800F00400019000BF00BF00BF0020BC
:105AA00001900846006840F0010008600846006860
:105AB00000F00100019000BF00BF00BF0020019076
:105AC0000846006840F0020008600846006800F0E0
:105AD0000200019000BF00BF00BF002001900846F7
